{
  "abi": [
    {
      "inputs": [
        {
          "internalType": "string",
          "name": "name_",
          "type": "string"
        },
        {
          "internalType": "string",
          "name": "symbol_",
          "type": "string"
        },
        {
          "internalType": "address",
          "name": "coreBridgeAddress",
          "type": "address"
        },
        {
          "internalType": "address",
          "name": "tokenBridgeAddress",
          "type": "address"
        }
      ],
      "stateMutability": "nonpayable",
      "type": "constructor"
    },
    {
      "anonymous": false,
      "inputs": [
        {
          "indexed": true,
          "internalType": "address",
          "name": "owner",
          "type": "address"
        },
        {
          "indexed": true,
          "internalType": "address",
          "name": "spender",
          "type": "address"
        },
        {
          "indexed": false,
          "internalType": "uint256",
          "name": "value",
          "type": "uint256"
        }
      ],
      "name": "Approval",
      "type": "event"
    },
    {
      "anonymous": false,
      "inputs": [
        {
          "indexed": true,
          "internalType": "string",
          "name": "str",
          "type": "string"
        }
      ],
      "name": "Log",
      "type": "event"
    },
    {
      "anonymous": false,
      "inputs": [
        {
          "indexed": true,
          "internalType": "bytes",
          "name": "payload",
          "type": "bytes"
        }
      ],
      "name": "PayloadLog",
      "type": "event"
    },
    {
      "anonymous": false,
      "inputs": [
        {
          "indexed": true,
          "internalType": "address",
          "name": "from",
          "type": "address"
        },
        {
          "indexed": true,
          "internalType": "address",
          "name": "to",
          "type": "address"
        },
        {
          "indexed": false,
          "internalType": "uint256",
          "name": "value",
          "type": "uint256"
        }
      ],
      "name": "Transfer",
      "type": "event"
    },
    {
      "inputs": [
        {
          "internalType": "address",
          "name": "owner",
          "type": "address"
        },
        {
          "internalType": "address",
          "name": "spender",
          "type": "address"
        }
      ],
      "name": "allowance",
      "outputs": [
        {
          "internalType": "uint256",
          "name": "",
          "type": "uint256"
        }
      ],
      "stateMutability": "view",
      "type": "function"
    },
    {
      "inputs": [
        {
          "internalType": "address",
          "name": "spender",
          "type": "address"
        },
        {
          "internalType": "uint256",
          "name": "amount",
          "type": "uint256"
        }
      ],
      "name": "approve",
      "outputs": [
        {
          "internalType": "bool",
          "name": "",
          "type": "bool"
        }
      ],
      "stateMutability": "nonpayable",
      "type": "function"
    },
    {
      "inputs": [
        {
          "internalType": "address",
          "name": "account",
          "type": "address"
        }
      ],
      "name": "balanceOf",
      "outputs": [
        {
          "internalType": "uint256",
          "name": "",
          "type": "uint256"
        }
      ],
      "stateMutability": "view",
      "type": "function"
    },
    {
      "inputs": [],
      "name": "decimals",
      "outputs": [
        {
          "internalType": "uint8",
          "name": "",
          "type": "uint8"
        }
      ],
      "stateMutability": "view",
      "type": "function"
    },
    {
      "inputs": [
        {
          "internalType": "address",
          "name": "spender",
          "type": "address"
        },
        {
          "internalType": "uint256",
          "name": "subtractedValue",
          "type": "uint256"
        }
      ],
      "name": "decreaseAllowance",
      "outputs": [
        {
          "internalType": "bool",
          "name": "",
          "type": "bool"
        }
      ],
      "stateMutability": "nonpayable",
      "type": "function"
    },
    {
      "inputs": [
        {
          "internalType": "address",
          "name": "spender",
          "type": "address"
        },
        {
          "internalType": "uint256",
          "name": "addedValue",
          "type": "uint256"
        }
      ],
      "name": "increaseAllowance",
      "outputs": [
        {
          "internalType": "bool",
          "name": "",
          "type": "bool"
        }
      ],
      "stateMutability": "nonpayable",
      "type": "function"
    },
    {
      "inputs": [],
      "name": "name",
      "outputs": [
        {
          "internalType": "string",
          "name": "",
          "type": "string"
        }
      ],
      "stateMutability": "view",
      "type": "function"
    },
    {
      "inputs": [
        {
          "internalType": "uint16",
          "name": "chainId",
          "type": "uint16"
        },
        {
          "internalType": "bytes32",
          "name": "applicationAddr",
          "type": "bytes32"
        }
      ],
      "name": "registerApplicationContracts",
      "outputs": [],
      "stateMutability": "nonpayable",
      "type": "function"
    },
    {
      "inputs": [
        {
          "internalType": "bytes",
          "name": "encodedVm",
          "type": "bytes"
        }
      ],
      "name": "submitForeignPurchase",
      "outputs": [
        {
          "internalType": "uint64",
          "name": "",
          "type": "uint64"
        }
      ],
      "stateMutability": "nonpayable",
      "type": "function"
    },
    {
      "inputs": [],
      "name": "symbol",
      "outputs": [
        {
          "internalType": "string",
          "name": "",
          "type": "string"
        }
      ],
      "stateMutability": "view",
      "type": "function"
    },
    {
      "inputs": [],
      "name": "totalSupply",
      "outputs": [
        {
          "internalType": "uint256",
          "name": "",
          "type": "uint256"
        }
      ],
      "stateMutability": "view",
      "type": "function"
    },
    {
      "inputs": [
        {
          "internalType": "address",
          "name": "to",
          "type": "address"
        },
        {
          "internalType": "uint256",
          "name": "amount",
          "type": "uint256"
        }
      ],
      "name": "transfer",
      "outputs": [
        {
          "internalType": "bool",
          "name": "",
          "type": "bool"
        }
      ],
      "stateMutability": "nonpayable",
      "type": "function"
    },
    {
      "inputs": [
        {
          "internalType": "address",
          "name": "from",
          "type": "address"
        },
        {
          "internalType": "address",
          "name": "to",
          "type": "address"
        },
        {
          "internalType": "uint256",
          "name": "amount",
          "type": "uint256"
        }
      ],
      "name": "transferFrom",
      "outputs": [
        {
          "internalType": "bool",
          "name": "",
          "type": "bool"
        }
      ],
      "stateMutability": "nonpayable",
      "type": "function"
    }
  ],
  "bytecode": {
    "object": "0x60806040526009805463ffffffff60a01b191690553480156200002157600080fd5b506040516200133638038062001336833981016040819052620000449162000292565b8351849084906200005d90600390602085019062000102565b5080516200007390600490602084019062000102565b50506040516e436f6e7374727563746f72204c6f6760881b8152600f019050604051908190038120907fcf34ef537ac33ee1ac626ca1587a0a7e8e51561e5514f8cb36afa1c5102b3bab90600090a2600780546001600160a01b03199081163317909155600880546001600160a01b0394851690831617905560098054929093169116179055506200035d9050565b828054620001109062000321565b90600052602060002090601f0160209004810192826200013457600085556200017f565b82601f106200014f57805160ff19168380011785556200017f565b828001600101855582156200017f579182015b828111156200017f57825182559160200191906001019062000162565b506200018d92915062000191565b5090565b5b808211156200018d576000815560010162000192565b634e487b7160e01b600052604160045260246000fd5b600082601f830112620001d057600080fd5b81516001600160401b0380821115620001ed57620001ed620001a8565b604051601f8301601f19908116603f01168101908282118183101715620002185762000218620001a8565b816040528381526020925086838588010111156200023557600080fd5b600091505b838210156200025957858201830151818301840152908201906200023a565b838211156200026b5760008385830101525b9695505050505050565b80516001600160a01b03811681146200028d57600080fd5b919050565b60008060008060808587031215620002a957600080fd5b84516001600160401b0380821115620002c157600080fd5b620002cf88838901620001be565b95506020870151915080821115620002e657600080fd5b50620002f587828801620001be565b935050620003066040860162000275565b9150620003166060860162000275565b905092959194509250565b600181811c908216806200033657607f821691505b6020821081036200035757634e487b7160e01b600052602260045260246000fd5b50919050565b610fc9806200036d6000396000f3fe608060405234801561001057600080fd5b50600436106100cf5760003560e01c806359837cdd1161008c57806395d89b411161006657806395d89b41146101c6578063a457c2d7146101ce578063a9059cbb146101e1578063dd62ed3e146101f457600080fd5b806359837cdd1461015c5780635f327e1c1461018857806370a082311461019d57600080fd5b806306fdde03146100d4578063095ea7b3146100f257806318160ddd1461011557806323b872dd14610127578063313ce5671461013a5780633950935114610149575b600080fd5b6100dc610207565b6040516100e99190610adf565b60405180910390f35b610105610100366004610b15565b610299565b60405190151581526020016100e9565b6002545b6040519081526020016100e9565b610105610135366004610b3f565b6102b1565b604051601281526020016100e9565b610105610157366004610b15565b6102d5565b61016f61016a366004610c14565b6102f7565b60405167ffffffffffffffff90911681526020016100e9565b61019b610196366004610ca7565b610541565b005b6101196101ab366004610cc5565b6001600160a01b031660009081526020819052604090205490565b6100dc6105c3565b6101056101dc366004610b15565b6105d2565b6101056101ef366004610b15565b61064d565b610119610202366004610ce0565b61065b565b60606003805461021690610d13565b80601f016020809104026020016040519081016040528092919081815260200182805461024290610d13565b801561028f5780601f106102645761010080835404028352916020019161028f565b820191906000526020600020905b81548152906001019060200180831161027257829003601f168201915b5050505050905090565b6000336102a7818585610686565b5060019392505050565b6000336102bf8582856107aa565b6102ca858585610824565b506001949350505050565b6000336102a78185856102e8838361065b565b6102f29190610d63565b610686565b604051631d195cdd60e21b8152600090600401604051908190038120907fcf34ef537ac33ee1ac626ca1587a0a7e8e51561e5514f8cb36afa1c5102b3bab90600090a260095460405163c3f511c160e01b81526000916001600160a01b03169063c3f511c19061036b908690600401610adf565b6000604051808303816000875af115801561038a573d6000803e3d6000fd5b505050506040513d6000823e601f3d908101601f191682016040526103b29190810190610dc8565b8060200190518101906103c59190610e19565b90508060e001516040516103d99190610ee2565b604051908190038120907f9fd6984187c286e054aa88600c4fe945befd9e9392be55ff9d231e484f1e5b9190600090a260008160200151606461041c9190610efe565b905061042830826109c8565b600954606083015160e08401516000926001600160a01b031691630f5287b0913091869161045590610f1d565b6009546040516001600160e01b031960e088901b1681526001600160a01b039095166004860152602485019390935261ffff909116604484015260648301526000608483015263ffffffff600160a01b9091041660a482015260c4016020604051808303816000875af11580156104d0573d6000803e3d6000fd5b505050506040513d601f19601f820116820180604052508101906104f49190610f41565b90506001600960148282829054906101000a900463ffffffff166105189190610f6b565b92506101000a81548163ffffffff021916908363ffffffff160217905550809350505050919050565b6007546001600160a01b031633146105ac5760405162461bcd60e51b815260206004820152602360248201527f4f6e6c79206f776e65722063616e207265676973746572206e657720636861696044820152626e732160e81b60648201526084015b60405180910390fd5b61ffff909116600090815260056020526040902055565b60606004805461021690610d13565b600033816105e0828661065b565b9050838110156106405760405162461bcd60e51b815260206004820152602560248201527f45524332303a2064656372656173656420616c6c6f77616e63652062656c6f77604482015264207a65726f60d81b60648201526084016105a3565b6102ca8286868403610686565b6000336102a7818585610824565b6001600160a01b03918216600090815260016020908152604080832093909416825291909152205490565b6001600160a01b0383166106e85760405162461bcd60e51b8152602060048201526024808201527f45524332303a20617070726f76652066726f6d20746865207a65726f206164646044820152637265737360e01b60648201526084016105a3565b6001600160a01b0382166107495760405162461bcd60e51b815260206004820152602260248201527f45524332303a20617070726f766520746f20746865207a65726f206164647265604482015261737360f01b60648201526084016105a3565b6001600160a01b0383811660008181526001602090815260408083209487168084529482529182902085905590518481527f8c5be1e5ebec7d5bd14f71427d1e84f3dd0314c0f7b2291e5b200ac8c7c3b925910160405180910390a3505050565b60006107b6848461065b565b9050600019811461081e57818110156108115760405162461bcd60e51b815260206004820152601d60248201527f45524332303a20696e73756666696369656e7420616c6c6f77616e636500000060448201526064016105a3565b61081e8484848403610686565b50505050565b6001600160a01b0383166108885760405162461bcd60e51b815260206004820152602560248201527f45524332303a207472616e736665722066726f6d20746865207a65726f206164604482015264647265737360d81b60648201526084016105a3565b6001600160a01b0382166108ea5760405162461bcd60e51b815260206004820152602360248201527f45524332303a207472616e7366657220746f20746865207a65726f206164647260448201526265737360e81b60648201526084016105a3565b6001600160a01b038316600090815260208190526040902054818110156109625760405162461bcd60e51b815260206004820152602660248201527f45524332303a207472616e7366657220616d6f756e7420657863656564732062604482015265616c616e636560d01b60648201526084016105a3565b6001600160a01b03848116600081815260208181526040808320878703905593871680835291849020805487019055925185815290927fddf252ad1be2c89b69c2b068fc378daa952ba7f163c4a11628f55a4df523b3ef910160405180910390a361081e565b6001600160a01b038216610a1e5760405162461bcd60e51b815260206004820152601f60248201527f45524332303a206d696e7420746f20746865207a65726f20616464726573730060448201526064016105a3565b8060026000828254610a309190610d63565b90915550506001600160a01b038216600081815260208181526040808320805486019055518481527fddf252ad1be2c89b69c2b068fc378daa952ba7f163c4a11628f55a4df523b3ef910160405180910390a35050565b60005b83811015610aa2578181015183820152602001610a8a565b8381111561081e5750506000910152565b60008151808452610acb816020860160208601610a87565b601f01601f19169290920160200192915050565b602081526000610af26020830184610ab3565b9392505050565b80356001600160a01b0381168114610b1057600080fd5b919050565b60008060408385031215610b2857600080fd5b610b3183610af9565b946020939093013593505050565b600080600060608486031215610b5457600080fd5b610b5d84610af9565b9250610b6b60208501610af9565b9150604084013590509250925092565b634e487b7160e01b600052604160045260246000fd5b604051610100810167ffffffffffffffff81118282101715610bb557610bb5610b7b565b60405290565b604051601f8201601f1916810167ffffffffffffffff81118282101715610be457610be4610b7b565b604052919050565b600067ffffffffffffffff821115610c0657610c06610b7b565b50601f01601f191660200190565b600060208284031215610c2657600080fd5b813567ffffffffffffffff811115610c3d57600080fd5b8201601f81018413610c4e57600080fd5b8035610c61610c5c82610bec565b610bbb565b818152856020838501011115610c7657600080fd5b81602084016020830137600091810160200191909152949350505050565b61ffff81168114610ca457600080fd5b50565b60008060408385031215610cba57600080fd5b8235610b3181610c94565b600060208284031215610cd757600080fd5b610af282610af9565b60008060408385031215610cf357600080fd5b610cfc83610af9565b9150610d0a60208401610af9565b90509250929050565b600181811c90821680610d2757607f821691505b602082108103610d4757634e487b7160e01b600052602260045260246000fd5b50919050565b634e487b7160e01b600052601160045260246000fd5b60008219821115610d7657610d76610d4d565b500190565b600082601f830112610d8c57600080fd5b8151610d9a610c5c82610bec565b818152846020838601011115610daf57600080fd5b610dc0826020830160208701610a87565b949350505050565b600060208284031215610dda57600080fd5b815167ffffffffffffffff811115610df157600080fd5b610dc084828501610d7b565b805160ff81168114610b1057600080fd5b8051610b1081610c94565b600060208284031215610e2b57600080fd5b815167ffffffffffffffff80821115610e4357600080fd5b908301906101008286031215610e5857600080fd5b610e60610b91565b610e6983610dfd565b81526020830151602082015260408301516040820152610e8b60608401610e0e565b606082015260808301516080820152610ea660a08401610e0e565b60a082015260c083015160c082015260e083015182811115610ec757600080fd5b610ed387828601610d7b565b60e08301525095945050505050565b60008251610ef4818460208701610a87565b9190910192915050565b6000816000190483118215151615610f1857610f18610d4d565b500290565b80516020808301519190811015610d475760001960209190910360031b1b16919050565b600060208284031215610f5357600080fd5b815167ffffffffffffffff81168114610af257600080fd5b600063ffffffff808316818516808303821115610f8a57610f8a610d4d565b0194935050505056fea2646970667358221220e47088ad0e53d5ce7d76502efcfb1af4f825db06aad16f7934771234b6f4777464736f6c634300080d0033",
    "linkReferences": {}
  },
  "methodIdentifiers": {
    "allowance(address,address)": "dd62ed3e",
    "approve(address,uint256)": "095ea7b3",
    "balanceOf(address)": "70a08231",
    "decimals()": "313ce567",
    "decreaseAllowance(address,uint256)": "a457c2d7",
    "increaseAllowance(address,uint256)": "39509351",
    "name()": "06fdde03",
    "registerApplicationContracts(uint16,bytes32)": "5f327e1c",
    "submitForeignPurchase(bytes)": "59837cdd",
    "symbol()": "95d89b41",
    "totalSupply()": "18160ddd",
    "transfer(address,uint256)": "a9059cbb",
    "transferFrom(address,address,uint256)": "23b872dd"
  },
  "id": 9
}