{
  "abi": [
    {
      "inputs": [
        {
          "internalType": "address",
          "name": "_core_bridge_address",
          "type": "address"
        }
      ],
      "stateMutability": "nonpayable",
      "type": "constructor"
    },
    {
      "inputs": [],
      "name": "getCurrentMsg",
      "outputs": [
        {
          "internalType": "string",
          "name": "",
          "type": "string"
        }
      ],
      "stateMutability": "view",
      "type": "function"
    },
    {
      "inputs": [
        {
          "internalType": "bytes",
          "name": "encodedMsg",
          "type": "bytes"
        }
      ],
      "name": "receiveEncodedMsg",
      "outputs": [],
      "stateMutability": "nonpayable",
      "type": "function"
    },
    {
      "inputs": [
        {
          "internalType": "uint16",
          "name": "chainId",
          "type": "uint16"
        },
        {
          "internalType": "bytes32",
          "name": "applicationAddr",
          "type": "bytes32"
        }
      ],
      "name": "registerApplicationContracts",
      "outputs": [],
      "stateMutability": "nonpayable",
      "type": "function"
    },
    {
      "inputs": [
        {
          "internalType": "bytes",
          "name": "str",
          "type": "bytes"
        }
      ],
      "name": "sendMsg",
      "outputs": [
        {
          "internalType": "uint64",
          "name": "sequence",
          "type": "uint64"
        }
      ],
      "stateMutability": "nonpayable",
      "type": "function"
    }
  ],
  "bytecode": {
    "object": "0x60806040526001805463ffffffff60a01b1916905534801561002057600080fd5b50604051610b44380380610b4483398101604081905261003f91610072565b60038054336001600160a01b031991821617909155600180549091166001600160a01b03929092169190911790556100a2565b60006020828403121561008457600080fd5b81516001600160a01b038116811461009b57600080fd5b9392505050565b610a93806100b16000396000f3fe608060405234801561001057600080fd5b506004361061004c5760003560e01c8063496d76ff146100515780635f327e1c14610066578063737a3ca414610079578063ff206cf8146100aa575b600080fd5b61006461005f3660046105a2565b6100bf565b005b610064610074366004610635565b610276565b61008c6100873660046105a2565b6102f3565b60405167ffffffffffffffff90911681526020015b60405180910390f35b6100b26103bb565b6040516100a191906106bd565b60015460405163607ec5ef60e11b8152600091829182916001600160a01b03169063c0fd8bde906100f49087906004016106bd565b600060405180830381865afa158015610111573d6000803e3d6000fd5b505050506040513d6000823e601f3d908101601f191682016040526101399190810190610847565b9250925092508181906101685760405162461bcd60e51b815260040161015f91906106bd565b60405180910390fd5b506080830151606084015161ffff16600090815260026020526040902054146101d35760405162461bcd60e51b815260206004820152601860248201527f496e76616c696420456d69747465722041646472657373210000000000000000604482015260640161015f565b61014083015160009081526004602052604090205460ff16156102385760405162461bcd60e51b815260206004820152601960248201527f4d65737361676520616c72656164792070726f63657373656400000000000000604482015260640161015f565b61014083015160009081526004602090815260408220805460ff1916600117905560e0850151805161026f9392919091019061044d565b5050505050565b6003546001600160a01b031633146102dc5760405162461bcd60e51b815260206004820152602360248201527f4f6e6c79206f776e65722063616e207265676973746572206e657720636861696044820152626e732160e81b606482015260840161015f565b61ffff909116600090815260026020526040902055565b600180546040516358cd21bf60e11b81526000926001600160a01b0383169263b19a437e9261033592600160a01b90920463ffffffff1691879160040161099f565b6020604051808303816000875af1158015610354573d6000803e3d6000fd5b505050506040513d601f19601f8201168201806040525081019061037891906109d1565b6001805491925061039691600160a01b900463ffffffff16906109ec565b600160146101000a81548163ffffffff021916908363ffffffff160217905550919050565b6060600080546103ca90610a22565b80601f01602080910402602001604051908101604052809291908181526020018280546103f690610a22565b80156104435780601f1061041857610100808354040283529160200191610443565b820191906000526020600020905b81548152906001019060200180831161042657829003601f168201915b5050505050905090565b82805461045990610a22565b90600052602060002090601f01602090048101928261047b57600085556104c1565b82601f1061049457805160ff19168380011785556104c1565b828001600101855582156104c1579182015b828111156104c15782518255916020019190600101906104a6565b506104cd9291506104d1565b5090565b5b808211156104cd57600081556001016104d2565b634e487b7160e01b600052604160045260246000fd5b6040516080810167ffffffffffffffff8111828210171561051f5761051f6104e6565b60405290565b604051610160810167ffffffffffffffff8111828210171561051f5761051f6104e6565b604051601f8201601f1916810167ffffffffffffffff81118282101715610572576105726104e6565b604052919050565b600067ffffffffffffffff821115610594576105946104e6565b50601f01601f191660200190565b6000602082840312156105b457600080fd5b813567ffffffffffffffff8111156105cb57600080fd5b8201601f810184136105dc57600080fd5b80356105ef6105ea8261057a565b610549565b81815285602083850101111561060457600080fd5b81602084016020830137600091810160200191909152949350505050565b61ffff8116811461063257600080fd5b50565b6000806040838503121561064857600080fd5b823561065381610622565b946020939093013593505050565b60005b8381101561067c578181015183820152602001610664565b8381111561068b576000848401525b50505050565b600081518084526106a9816020860160208601610661565b601f01601f19169290920160200192915050565b6020815260006106d06020830184610691565b9392505050565b805160ff811681146106e857600080fd5b919050565b805163ffffffff811681146106e857600080fd5b80516106e881610622565b805167ffffffffffffffff811681146106e857600080fd5b600082601f83011261073557600080fd5b81516107436105ea8261057a565b81815284602083860101111561075857600080fd5b610769826020830160208701610661565b949350505050565b600082601f83011261078257600080fd5b8151602067ffffffffffffffff82111561079e5761079e6104e6565b6107ac818360051b01610549565b82815260079290921b840181019181810190868411156107cb57600080fd5b8286015b8481101561082c57608081890312156107e85760008081fd5b6107f06104fc565b81518152848201518582015260406108098184016106d7565b90820152606061081a8382016106d7565b908201528352918301916080016107cf565b509695505050505050565b805180151581146106e857600080fd5b60008060006060848603121561085c57600080fd5b835167ffffffffffffffff8082111561087457600080fd5b90850190610160828803121561088957600080fd5b610891610525565b61089a836106d7565b81526108a8602084016106ed565b60208201526108b9604084016106ed565b60408201526108ca60608401610701565b6060820152608083015160808201526108e560a0840161070c565b60a08201526108f660c084016106d7565b60c082015260e08301518281111561090d57600080fd5b61091989828601610724565b60e08301525061010061092d8185016106ed565b90820152610120838101518381111561094557600080fd5b6109518a828701610771565b91830191909152506101408381015190820152945061097260208701610837565b9350604086015191508082111561098857600080fd5b5061099586828701610724565b9150509250925092565b63ffffffff841681526060602082015260006109be6060830185610691565b905060ff83166040830152949350505050565b6000602082840312156109e357600080fd5b6106d08261070c565b600063ffffffff808316818516808303821115610a1957634e487b7160e01b600052601160045260246000fd5b01949350505050565b600181811c90821680610a3657607f821691505b60208210811415610a5757634e487b7160e01b600052602260045260246000fd5b5091905056fea2646970667358221220dca09b4cfafc25b78e152282ddbe06bb71431d32743ce15106254fd727ad285b64736f6c634300080a0033",
    "linkReferences": {}
  },
  "methodIdentifiers": {
    "getCurrentMsg()": "ff206cf8",
    "receiveEncodedMsg(bytes)": "496d76ff",
    "registerApplicationContracts(uint16,bytes32)": "5f327e1c",
    "sendMsg(bytes)": "737a3ca4"
  },
  "id": 0
}