{
  "abi": [
    {
      "inputs": [],
      "stateMutability": "nonpayable",
      "type": "constructor"
    },
    {
      "inputs": [],
      "name": "getCurrentMsg",
      "outputs": [
        {
          "internalType": "string",
          "name": "",
          "type": "string"
        }
      ],
      "stateMutability": "view",
      "type": "function"
    },
    {
      "inputs": [
        {
          "internalType": "bytes",
          "name": "encodedMsg",
          "type": "bytes"
        }
      ],
      "name": "receiveEncodedMsg",
      "outputs": [],
      "stateMutability": "nonpayable",
      "type": "function"
    },
    {
      "inputs": [
        {
          "internalType": "uint16",
          "name": "chainId",
          "type": "uint16"
        },
        {
          "internalType": "bytes32",
          "name": "applicationAddr",
          "type": "bytes32"
        }
      ],
      "name": "registerApplicationContracts",
      "outputs": [],
      "stateMutability": "nonpayable",
      "type": "function"
    },
    {
      "inputs": [
        {
          "internalType": "bytes",
          "name": "str",
          "type": "bytes"
        }
      ],
      "name": "sendMsg",
      "outputs": [
        {
          "internalType": "uint64",
          "name": "sequence",
          "type": "uint64"
        }
      ],
      "stateMutability": "nonpayable",
      "type": "function"
    }
  ],
  "bytecode": {
    "object": "0x6080604052600180546001600160a01b03191673c89ce4735882c9f0f0fe26686c53074e09b0d550908117909155600280546001600160c01b031916909117905534801561004c57600080fd5b50600480546001600160a01b03191633179055610a958061006e6000396000f3fe608060405234801561001057600080fd5b506004361061004c5760003560e01c8063496d76ff146100515780635f327e1c14610066578063737a3ca414610079578063ff206cf8146100aa575b600080fd5b61006461005f3660046105a4565b6100bf565b005b610064610074366004610637565b610276565b61008c6100873660046105a4565b6102f3565b60405167ffffffffffffffff90911681526020015b60405180910390f35b6100b26103bd565b6040516100a191906106bf565b60025460405163607ec5ef60e11b8152600091829182916001600160a01b03169063c0fd8bde906100f49087906004016106bf565b600060405180830381865afa158015610111573d6000803e3d6000fd5b505050506040513d6000823e601f3d908101601f191682016040526101399190810190610849565b9250925092508181906101685760405162461bcd60e51b815260040161015f91906106bf565b60405180910390fd5b506080830151606084015161ffff16600090815260036020526040902054146101d35760405162461bcd60e51b815260206004820152601860248201527f496e76616c696420456d69747465722041646472657373210000000000000000604482015260640161015f565b61014083015160009081526005602052604090205460ff16156102385760405162461bcd60e51b815260206004820152601960248201527f4d65737361676520616c72656164792070726f63657373656400000000000000604482015260640161015f565b61014083015160009081526005602090815260408220805460ff1916600117905560e0850151805161026f9392919091019061044f565b5050505050565b6004546001600160a01b031633146102dc5760405162461bcd60e51b815260206004820152602360248201527f4f6e6c79206f776e65722063616e207265676973746572206e657720636861696044820152626e732160e81b606482015260840161015f565b61ffff909116600090815260036020526040902055565b6002546040516358cd21bf60e11b81526000916001600160a01b0381169163b19a437e9161033791600160a01b90910463ffffffff169086906001906004016109a1565b6020604051808303816000875af1158015610356573d6000803e3d6000fd5b505050506040513d601f19601f8201168201806040525081019061037a91906109d3565b60025490915061039890600160a01b900463ffffffff1660016109ee565b600260146101000a81548163ffffffff021916908363ffffffff160217905550919050565b6060600080546103cc90610a24565b80601f01602080910402602001604051908101604052809291908181526020018280546103f890610a24565b80156104455780601f1061041a57610100808354040283529160200191610445565b820191906000526020600020905b81548152906001019060200180831161042857829003601f168201915b5050505050905090565b82805461045b90610a24565b90600052602060002090601f01602090048101928261047d57600085556104c3565b82601f1061049657805160ff19168380011785556104c3565b828001600101855582156104c3579182015b828111156104c35782518255916020019190600101906104a8565b506104cf9291506104d3565b5090565b5b808211156104cf57600081556001016104d4565b634e487b7160e01b600052604160045260246000fd5b6040516080810167ffffffffffffffff81118282101715610521576105216104e8565b60405290565b604051610160810167ffffffffffffffff81118282101715610521576105216104e8565b604051601f8201601f1916810167ffffffffffffffff81118282101715610574576105746104e8565b604052919050565b600067ffffffffffffffff821115610596576105966104e8565b50601f01601f191660200190565b6000602082840312156105b657600080fd5b813567ffffffffffffffff8111156105cd57600080fd5b8201601f810184136105de57600080fd5b80356105f16105ec8261057c565b61054b565b81815285602083850101111561060657600080fd5b81602084016020830137600091810160200191909152949350505050565b61ffff8116811461063457600080fd5b50565b6000806040838503121561064a57600080fd5b823561065581610624565b946020939093013593505050565b60005b8381101561067e578181015183820152602001610666565b8381111561068d576000848401525b50505050565b600081518084526106ab816020860160208601610663565b601f01601f19169290920160200192915050565b6020815260006106d26020830184610693565b9392505050565b805160ff811681146106ea57600080fd5b919050565b805163ffffffff811681146106ea57600080fd5b80516106ea81610624565b805167ffffffffffffffff811681146106ea57600080fd5b600082601f83011261073757600080fd5b81516107456105ec8261057c565b81815284602083860101111561075a57600080fd5b61076b826020830160208701610663565b949350505050565b600082601f83011261078457600080fd5b8151602067ffffffffffffffff8211156107a0576107a06104e8565b6107ae818360051b0161054b565b82815260079290921b840181019181810190868411156107cd57600080fd5b8286015b8481101561082e57608081890312156107ea5760008081fd5b6107f26104fe565b815181528482015185820152604061080b8184016106d9565b90820152606061081c8382016106d9565b908201528352918301916080016107d1565b509695505050505050565b805180151581146106ea57600080fd5b60008060006060848603121561085e57600080fd5b835167ffffffffffffffff8082111561087657600080fd5b90850190610160828803121561088b57600080fd5b610893610527565b61089c836106d9565b81526108aa602084016106ef565b60208201526108bb604084016106ef565b60408201526108cc60608401610703565b6060820152608083015160808201526108e760a0840161070e565b60a08201526108f860c084016106d9565b60c082015260e08301518281111561090f57600080fd5b61091b89828601610726565b60e08301525061010061092f8185016106ef565b90820152610120838101518381111561094757600080fd5b6109538a828701610773565b91830191909152506101408381015190820152945061097460208701610839565b9350604086015191508082111561098a57600080fd5b5061099786828701610726565b9150509250925092565b63ffffffff841681526060602082015260006109c06060830185610693565b905060ff83166040830152949350505050565b6000602082840312156109e557600080fd5b6106d28261070e565b600063ffffffff808316818516808303821115610a1b57634e487b7160e01b600052601160045260246000fd5b01949350505050565b600181811c90821680610a3857607f821691505b60208210811415610a5957634e487b7160e01b600052602260045260246000fd5b5091905056fea26469706673582212201b690f32a0f6bf405987588b06acf77d04dd7beb4a42b4f969736684b836b11964736f6c634300080a0033",
    "linkReferences": {}
  },
  "methodIdentifiers": {
    "getCurrentMsg()": "ff206cf8",
    "receiveEncodedMsg(bytes)": "496d76ff",
    "registerApplicationContracts(uint16,bytes32)": "5f327e1c",
    "sendMsg(bytes)": "737a3ca4"
  },
  "id": 0
}